:1000000010C02AC029C029C027C026C025C024C0CE
:1000100023C022C021C020C01FC01EC01DC01CC0E4
:100020001BC011241FBECFE5D2E0DEBFCDBF10E064
:10003000A0E6B0E0E2E0F2E002C005900D92A23648
:10004000B107D9F720E0A2E6B0E001C01D92AC36BE
:10005000B207E1F790D0D3C0D3CF1F921FB61F9243
:1000600011242F933F938F939F93F894B1995AC083
:1000700080916400811509F455C0DA9A8CB59DB55C
:1000800020916800309169008B549109821B930B79
:1000900090936B0080936A0080916A0090916B004E
:1000A00018161906D4F180916A0090916B00909314
:1000B00061008093600010926400B0994AC0809102
:1000C0006500811509F445C0D99A8CB59DB520917C
:1000D0006600309167008B549109821B930B9093BB
:1000E0006B0080936A0080916A0090916B001816F3
:1000F000190654F180916A0090916B009093610011
:10010000809360001092650078949F918F913F9149
:100110002F911F901FBE1F90189510926100109292
:100120006000C9CFB19BC9CF809164008111C5CF58
:100130008CB59DB5909369008093680081E08093B1
:10014000620080936400B9CF109261001092600049
:10015000D9CFB09BD9CF809165008111D5CF8CB517
:100160009DB5909367008093660081E08093630063
:1001700080936500C9CF8AB386608ABB8BB38660E3
:100180008BBB87B38C7F87BB1EBC8EB584608EBD56
:100190008BB780628BBF80B5836080BD789480917F
:1001A00063008115A1F0F8948CB59DB5409166006F
:1001B000509167002091600030916100841B950B85
:1001C0008217930718F0D998109263007894809161
:1001D0006200811521F3F8948CB59DB540916800BB
:1001E000509169002091600030916100841B950B53
:1001F0008217930798F2DA9810926200CFCFF894A2
:02020000FFCF2E
:020202007D007D
:00000001FF
